:020000040800F2
:10000000982400206D02000885420008313C000859
:1000100049400008E10C0008B96C0008000000002D
:10002000000000000000000000000000B1420008D5
:10003000850D00080000000095420008B542000848
:10004000870200088702000887020008870200086C
:10005000870200088702000887020008870200085C
:10006000870200088702000887020008870200084C
:10007000870200088702000887020008870200083C
:100080008702000887020008D50C000887020008D4
:10009000870200088702000887020008890D00080F
:1000A000794300089D4300089143000885430008F8
:1000B00087020008870200088702000887020008FC
:1000C00087020008870200088702000887020008EC
:1000D00087020008870200088702000887020008DC
:1000E00087020008870200088702000887020008CC
:1000F00087020008870200088702000887020008BC
:100100008702000887020008870200089942000859
:10011000870200088702000887020008870200089B
:10012000790D00088702000887020008870200088E
:10013000870200080000000000000000870200089D
:100140008702000887020008870200088942000829
:10015000870200088702000887020008870200085B
:10016000870200088702000887020008870200084B
:10017000870200088702000800000000000000005D
:10018000870200088702000800F002F800F05FF81C
:1001900014A696E8000CB244B344DA4501D100F04D
:1001A00056F8BAE80F000FA696E83000A5EB040554
:1001B00004EB0607AAEB0704A7F101074FEA1515A0
:1001C0004FEA3414A4F10104AC4201D300F03FF82B
:1001D00013F0010F18BFFB1A43F0010300F001F800
:1001E000DBE718472875000048750000103A24BF67
:1001F00078C878C1FAD8520724BF30C830C144BF8C
:1002000004680C6070470000704700000023002461
:1002100000250026103A28BF78C1FBD8520728BF16
:1002200030C148BF0B607047662907F01782002075
:1002300070471FB507F005FA00F0D8FB0400002056
:10024000002107F0D5F9E0601FBD10B510BD00F02A
:10025000CDFC1146FFF7EDFF06F030FD00F0EBFCA2
:1002600003B4FFF7F2FF03BC00F02CFD0948804700
:1002700009480047FEE7FEE7FEE7FEE7FEE7FEE788
:10028000FEE7FEE7FEE7FEE704480549054A064BA0
:10029000704700006543000889010008981E00208F
:1002A00098240020982000209820002053EA020C77
:1002B00000F069802DE9F04B4FF00006002B1FBFC6
:1002C000B3FA83F503FA05F424FA05F65E4012BF8B
:1002D0001643B2FA82F502FA05F4C5F120051EBFF5
:1002E00022FA05FC44EA0C04203556EA044C4FEA95
:1002F000144418BF641C4FF000084FF000099042EE
:1003000071EB030C39D3002919BFB1FA81F701FA57
:1003100007F6B0FA80F700FA07F6C7F120071EBF0C
:1003200020FA07FC46EA0C062037B6FBF4FCA7EBE4
:100330000507103F07F01F0BCBF120062CFA06F63D
:100340000CFA0BFB44BFB3460026202FA4BF5E4629
:100350004FF0000B5BEA060C08BF4FF0010B19EBE6
:100360000B0948EB0608ABFB027C06FB02CC0BFB3F
:1003700003CCC01B71EB0C01C1E70B4602464146A2
:100380004846BDE8F08B13B5084318BF4FF0FF3067
:100390000146AFF30080BDE81C4070470FB41CB5A8
:1003A0000C0007AA009007D04142A14202D320448A
:1003B000401E01E04FF0FF30074B7B44694601903F
:1003C000069800F0F8FA0021002C01D0009A117074
:1003D0001CBC5DF814FB00001F0600002DE9F0476F
:1003E0004FF0000A89460446C0F820A02046E16884
:1003F0008847002876D0252806D0D4E901219047E7
:10040000206A401C2062F1E7E16820460026884708
:10041000C4F81CA005460027C4F818A02A2D09D04E
:10042000284607F0DDF838B304EB8708303DC8F8FC
:10043000185019E059F8041B204604EB870291611B
:10044000E1688847012F054618D1E069002820DAC5
:1004500026F020061DE0D8F8180000EB800005EB20
:1004600040003038C8F818002046E1688847054643
:1004700007F0B6F80028EED1012F0AD02E2D08D1B2
:100480002046E16888477F1C0546022F46F020067B
:10049000C4DBA069002803DA404246F00106A061EF
:1004A000F00701D026F010066C2D0AD0682D08D078
:1004B0004C2D39D06A2D35D0742D35D07A2D33D0CE
:1004C00016E0E1682F4620468847B84205460AD123
:1004D0006C2F27D04FF48060E168064320468847A0
:1004E000054605E027E06C2F1AD04FF480700643D4
:1004F0000DB3A5F14100192802D8203546F4006655
:100500004A462946204626604E46FFF78DFE80B1BA
:1005100001280BD0F61D26F0070000F1080965E759
:100520004020E4E78020D7E70020D5E706F1040962
:100530005CE7284661E7206ABDE8F0874FF00002DB
:1005400000B5134694469646203922BFA0E80C50C9
:10055000A0E80C50B1F12001BFF4F7AF090728BFA4
:10056000A0E80C5048BF0CC05DF804EB890028BF20
:1005700040F8042B08BF704748BF20F8022B11F049
:10058000804F18BF00F8012B7047704770477047C5
:100590002DE9FF4F0C461E464FF0FF378BB0D2E9D6
:1005A0000001DDF860800A908A46C1F30A5505B95A
:1005B0003D46002108464FF00000BAF1000F00F45C
:1005C000400005DA00EB80004FF4400101EA5000E2
:1005D0004FEA9059B9F1010F00DDB9460A9850EA87
:1005E0004A000ED044F61050A5F2FF3545432F14B3
:1005F000B8F1000F1ED07542291E1EDDC9F10002A0
:100600001CE0B8F1010F4FF0000001D0302103E0F1
:10061000F24305E02154401CB042FBDB304600228F
:10062000002121540B99C1F80880C1E900200FB0C6
:10063000BDE8F08FBD1B6D1CDEE74A4600DA69425B
:1006400006A800F05DFA06AB93E8070003AB83E869
:10065000070050460A9906F0E3FB8DE80700A0F575
:1006600000501F3800900398002D0ADD42F21F0150
:100670004A460844002303A90390684606F04CFE4E
:1006800009E0A0F500504A461F38002303A9039053
:10069000684606F056FE8DE807000004000C03D003
:1006A0004FF0FF30410800E01046B8F1000F03D0D2
:1006B0000022009215461EE0751E05D400F09AF93E
:1006C000303262556D1EF9D5B3460122084302D07F
:1006D00000227F1C04E02078302801D100227F1EF8
:1006E000002A099784D01DE0112D07DA00F082F965
:1006F000303262556D1C50EA0102F5D1084302D038
:100700000098C8B10EE00021681E05E0235C625C21
:1007100063542254401E491C8142F7DBAB46A81BA0
:10072000401E0990002004F80B000B98099AC0F8AD
:100730000880C0E9002B7AE711264FF0000857E740
:100740002DE9F04F88460446D21D22F0070191B0F2
:10075000D1E90001CDE90A0106F02AFF02460B9813
:10076000C00F01D02D2007E02068810701D52B2084
:1007700002E0202101EAC000032A099001D0072AE3
:1007800005DB03464146204600F07AF90BE120786C
:10079000800601D5E06900E00620B8F1650F8146CA
:1007A00006D0B8F1660F18D0B8F1670F70D131E0FC
:1007B0000020B9F1110F009001DB112301E009F1D4
:1007C00001030AAA01A90CA8FFF7E2FEDDE90C70FB
:1007D000002609F10105834647E001204B460090C1
:1007E0004FF000470AAA01A90CA8FFF7D1FEDDE9E6
:1007F0000DB00C995D46002610B909F101000D18E5
:10080000B9EB050003D4C0F1FF3609F10105A5EBF2
:1008100009002BE0B9F1010F01DA4FF001090020C6
:10082000B9F1110F0090484601DD112300E00346A5
:100830000AAA01A90CA8FFF7ABFEDDE90C704D4632
:1008400000268346207800070AD4AB4500DA5D46CF
:1008500001A8012D04DD411911F8011C302907D030
:100860004F4502DA17F1040F04DA012082460FE047
:100870006D1EEEE7002F02DCED1B3E4403E0781C0A
:10088000A84200DD7D1CB81B00F1010A4FF00047B3
:100890002078000703D4AA4501DB4FF0FF3A00217E
:1008A000B7F1004F0DF143088DF8431024D002201A
:1008B0002B23002F01DA7F422D230A21021EA0F1F3
:1008C000010000DC5FB197FBF1FC97FBF1F201FB4B
:1008D0001C7C17460CF1300C08F801CDEEE7A8F1AE
:1008E000010003702188090501D5452100E065213B
:1008F000A0F1010800F8011C09980FA9A1EB080755
:10090000FF1D00B10120411901EBEA70A1693844D3
:10091000081A401EA0612078C00602D42046AFF31A
:100920000080099828B1D4E901219047206A401C31
:1009300020622078C00622D52046AFF300801EE05A
:10094000002E04DBB34502DD01A8805D00E030200D
:10095000D4E901219047206A401C2062761CAAF14C
:1009600001005FEA000A0AD100F040F8C06801689F
:10097000405CD4E901219047206A401C2062281E77
:10098000A5F10105DCDC07E0D4E9012118F8010B31
:100990009047206A401C2062381EA7F10107F3DC53
:1009A0002046AFF30080032011B041E601694A1CE4
:1009B00002610878704700B58FB0CDE901310021A0
:1009C000059105497944CDE9031011466846FFF7C2
:1009D00005FD0FB000BD0000E5FFFFFFD1E90023DA
:1009E0009A4202D2531C0B60107070470048704747
:1009F0001801002030B5B0F10A0271F100034FEA8E
:100A0000900E4EEA817EB0EB0E0061EB91014FEA51
:100A1000101E4EEA017E10EB0E0041EB11114FEA61
:100A2000102E4EEA016E10EB0E0041EB11214FEA41
:100A3000104E4EEA014E10EB0E0041EB11414018F2
:100A400041F100014FEAD00040EA41704FEAD10184
:100A50004FEA810444EA907410EB800544EB0104F2
:100A60006D1944EB0404521BA3414FF0000348BF2F
:100A70000A3200D530BD401C41F1000130BD0000FC
:100A80002DE9F0411F46044603260168072A01F4B8
:100A9000006004DB08B116A505E016A503E008B167
:100AA00015A500E015A521F010002060A069C01E6A
:100AB000A0610FB1401EA0612046AFF300804FB18E
:100AC000D4E9012138469047206A401C2062C01CAE
:100AD000206206E0206AFAE7D4E9012115F8010B4B
:100AE0009047761EF8D22046AFF30080BDE8F08133
:100AF0004E414E006E616E00494E4600696E6600C2
:100B00002DE9F047814616468AB0354878440DC82D
:100B10008DE80D0032487844801C03AC0DC884E891
:100B20000D0041F69B300844372190FBF1F290FB19
:100B3000F1F5A5F1800501FB12041B3C02D56442CE
:100B4000012000E00020DFF898A080460027FA444A
:100B5000AAF1BE0A0EE0E0070AD03246684607EB6B
:100B6000470101230AEB810106F0EBFB8DE807004A
:100B700064107F1C002CEED1194F7F44AE3F19E06A
:100B8000E80715D007EB04100DF1180A90E80E00E5
:100B90008AE80E00C068F04201D1981908903246E8
:100BA000012306A903A806F0CCFB03AB83E80700EA
:100BB0006D10641C002DE3D14FF0010332466946ED
:100BC000B8F1000F03A802D006F0A6FB01E006F082
:100BD000B8FBC9E90001C9F808200AB0BDE8F087F0
:100BE000CC6B000000487047F80000207546FFF706
:100BF000F9FFAE4605006946534620F007008546DA
:100C000018B020B5FFF740FBBDE820404FF00006CC
:100C10004FF000074FF000084FF0000BAC46ACE877
:100C2000C009ACE8C009ACE8C009ACE8C00921F0D3
:100C300007018D46704710B50446AFF3008020468B
:100C4000BDE81040FFF70CBB30B44FF0013C50F84A
:100C5000042B51F8043BCCFA52F4D51A20D1FCB93C
:100C600050F8042B51F8043BCCFA52F4D51A17D1A2
:100C7000B4B950F8042B51F8043BCCFA52F4D51A0D
:100C80000ED16CB950F8042B51F8043BCCFA52F455
:100C9000D51A05D1002CDAD030BC4FF000007047D7
:100CA00029BAB1FA81F111F01801D1F12000844084
:100CB000F2D1CA40CB4012F0FF0213F0FF0330BC68
:100CC000D01A704701491820ABBEFEE7260002008B
:100CD0007047000041F66400C2F2000000F00AB95B
:100CE000FEE70000002070470020704710B541F279
:100CF0008854C2F2000440F68851C2F20001204636
:100D0000002203F0B5FD40F28851C2F200012046F6
:100D100003F0A0FD002010BD10B541F28854C2F2CE
:100D200000040146204603F095FD204603F06CFDCB
:100D3000002010BD0020704710B541F28852C2F269
:100D40000002D2F8BC3292F89C42032C05D123B1A8
:100D50000A460146D3F8140210B1012010BD00BFAD
:100D600041F28854C2F20004204603F081FD20467F
:100D7000BDE8104003F000BE41F6AC00C2F2000036
:100D800000F078BA7047000080B5402000F024FCE5
:100D9000802000F021FC4FF48070BDE8804000F01E
:100DA0001BBC000072B600BFFEE7000070470000E9
:100DB00070B581B00022009290F83C20012A03D146
:100DC000022001B070BD00BFD1F800E001221FFA7F
:100DD0008EFC4FEA4C0380F83C200EEB4E0213FAD7
:100DE0008EF31024BEF1090F88BFA3F11E0288BF45
:100DF0000C24036807251E59954026EA05051D5158
:100E00008D681E5905FA02F232431A5149680629C3
:100E100006D801EB81014A1F194651F8345F0EE0F4
:100E20000C2901EB810105D8A1F12302194651F8E3
:100E3000305F04E0A1F14102194651F82C5F1F24F4
:100E4000944025EA04040C600CFA02F20C6842F2A9
:100E5000043CC4F2010C2243ACF54174A3420A6085
:100E60003ED1BEF1120F07D1DCF8001041F4800131
:100E7000CCF8001034E000BF2EF0010110292FD172
:100E8000DCF80010BEF1100F41F40001CCF80010A6
:100E900026D140F22401C2F2000109684DF68362B6
:100EA000C4F21B32A1FB0212910C01EB810149003B
:100EB00000910099A1B1009901390091009979B18F
:100EC000009901390091009951B1009901390091BF
:100ED000009929B100990139009100990029EAD1BE
:100EE000002180F83C10002001B070BD7047000068
:100EF0007047000070B50446006806684568B10791
:100F000017D515F0200114D0216CC90603D4216C2B
:100F100041F400712164816811F0405F02D1217EAB
:100F2000002969D02046FFF7E1FF20686FF0120129
:100F30000160710714D515F0800111D0216CC9062C
:100F400003D4216C41F400512164816811F4401FE5
:100F500030D02046FFF72AFF20686FF00C010160B7
:100F6000F10706D015F040011CBF01685FEAC171AE
:100F700012D1B1060FD515F0806108BF70BD616C4C
:100F80006FF0200541F00201616405602046FFF723
:100F9000AFFF2068056070BD206C40F48030206495
:100FA000204600F0F1F820686FF001010160B10601
:100FB000E1D4F0E7816B11F4401F02D0816849054C
:100FC000C7D441684905C4D4816811F0405FC0D1DD
:100FD000217E0029BDD1416821F080014160206C53
:100FE00020F480502064206CC005B2D4206C40F006
:100FF00001002064ADE700BFC16A11F4700F03D097
:10100000816849053FF58EAF416821F020014160BC
:10101000206C20F480702064206CC0043FF582AF07
:10102000206C40F0010020647CE70000002804BF31
:101030000120704710B5016C00293DD0016CC90634
:1010400045D4016C41F202129143023142F2043262
:101050000164C4F20102116821F440311160136887
:1010600090E812102343D0F810E013604A6801247E
:1010700022F480724A604A68C0F6007442EA0E2286
:101080004A604A6822F040724A604A6842EA0C02AA
:101090004A608A6822F400628A60C2688B681A43D8
:1010A0008A60826A8B68A24223F070638B608B68CF
:1010B00010D123F0405216E0044600F067F82046B5
:1010C0000021616484F83C10016CC906B9D5012186
:1010D00053E000BF1A438A608A6822F040528A6057
:1010E000C26A8B681A438A608A6822F002028A60A8
:1010F0008A68037E90F8204042EA43028A604A6888
:1011000084B142F400624A604A684EF2000322F45D
:1011100060424A60426ACFF6FF734C6803EB42328A
:10112000224301E022F400624A60CA6A40F2000CE5
:1011300022F47002CA62C3694269CFF6F07CCC6ABD
:101140000CEB03532343CB628B6823F400738B6057
:1011500090F830308C6844EA43238B608B6823F42A
:1011600080638B608B6843EA82228A60002141643D
:10117000026C012363F301020264002280F83C2028
:10118000BDE81040084670477047000070B586B053
:10119000044642F200002168C4F2010000268142A8
:1011A0000596CDE903660296019601D006B070BDA2
:1011B00043F630010096C4F202014A6900F5684026
:1011C00042F480724A614A6902F480720092009A85
:1011D00000960A6842F004020A60096801F00401FE
:1011E00000910099072101910321CDE9021601A97F
:1011F00000F0FEF941F6AC0546F21040C2F20005DF
:10120000C4F202004FF48061C5E9000605F1100048
:101210004FF400624FF400534FF4807C80E80E10CE
:101220002846C5E90266C5E9086600F005F9002808
:1012300018BFFFF7B7FD122000210022A563AC63A1
:1012400000F034FB122000F01FFB06B070BD000060
:1012500090F83510022909D1052180F83510006871
:10126000016821F001010160002070478021416583
:1012700001207047F0B581B00021009140F22401B7
:10128000C2F200010B68D0E9166148F2B515376863
:101290000822C1F64E358A403A42A3FB05350CD0F0
:1012A00003681C68640708D51C6824F004041C60EB
:1012B000B260426D42F00102426501228A403A4228
:1012C00008D003685B691B0604D5B260426D42F02A
:1012D0000202426504228A403A4208D003681B6831
:1012E0009B0704D5B260426D42F0040242651022B1
:1012F0008A403A4219D001680B681B0715D5B260C5
:101300000B680A685B0309D4D20509D40A6822F085
:1013100008020A60016C29B907E000BF110341D43B
:10132000016C11B1044688472046C26D202101FAA4
:1013300002F33B4243D001680F68FF063FD5B3601C
:1013400090F835700B68052F1CD123F016030B6045
:101350004B6923F080034B61036C0BB9836C1BB1A9
:101360000B6823F008030B603F219140B16001211D
:1013700080F83510016D0022002980F8342054D106
:1013800058E000BF0A685B0310D4D20512D40A6883
:1013900022F010020A60012180F83510002180F847
:1013A000341007E0816C0029BCD1BEE7110301D4E1
:1013B000416C00E0C16B11B1044688472046416D85
:1013C000C1B3416DC9072ED0052180F835100168E1
:1013D000AA0A0B6823F001030B60009B01339342C0
:1013E00000931AD80B68DB0717D0009B0133934298
:1013F000009312D80B68DB070FD0009B0133934298
:1014000000930AD80B68DB0707D0009B0133934297
:10141000009302D80B68DB07DFD1012180F835107B
:10142000002180F83410C16C21B101B0BDE8F0405A
:10143000084700BF01B0F0BD2DE9F041044600F0BF
:10144000B3F9ECB10546022084F83500002021688C
:1014500084F83400086820F00100086021680868FA
:10146000C00711D000F0A0F9401B0528F6D90325CC
:1014700020230320636584F83550BDE8F08100BF68
:101480000120BDE8F08100BF086848F23F02CFF2BA
:101490001002D4E9013500EA020C04F10C0898E8C6
:1014A000C10143EA0C032B431843D4E9072E304310
:1014B00038431043626A40EA0E00042A40EA0803F7
:1014C0001CD1206BD4E90A2E40EA0E0018430860B4
:1014D0004869BEF1000F20F0030040EA020040F02E
:1014E000040C11D0B8F5005F36D0B8F1000F45D12B
:1014F000022A46D0012A3BD032B942E00B6048694B
:1015000020F0070040EA020C01F0F8004AF6AB2296
:101510001038CAF6AA22A0FB02231A0947F2047364
:10152000C1F814C0C0F600039A5C40F2FF335F2894
:101530004FF03F0021EA030100FA02F088BF0431B6
:10154000C4E916128860002301250020636584F831
:101550003550BDE8F08100BF032AD5D801254023CE
:101560000120DFE802F0030E030500BF82E700BFA1
:10157000AEF1C070B0FA80F0400904E0032A04D351
:10158000C2D1CEF300600028BED001254023012047
:10159000636584F83550BDE8F0810000B0B50446BD
:1015A00000F002F9054640F20000C2F200000078A7
:1015B000611C18BF044400BF00F0F6F8401BA042B5
:1015C000FAD3B0BD402818BFB0F5807F02D0802884
:1015D00018BF704702F02ABE43F61441C4F201015D
:1015E0000A68024214BF08607047FFF7EBBF0000B3
:1015F0002DE9F04F83B000F1200200F13E4741F6A3
:101600000045009207F1FF77C4F2020508224FEA75
:10161000B726A84208BF072200254FF000084FF068
:101620000009072E38BF4FEAB72201920AE000BF37
:1016300009F1010908F10208B9F1100F05F10405DB
:1016400000F0A2800F68012202FA09FE17EA0E0AD2
:10165000EED0D1F804C003220CF003077E1E02FA7C
:1016600008F4012E6FEA040B12D88468CE6804EAED
:101670000B0406FA08F634438460446824EA0E0634
:10168000CCF3001404FA09F42643466004E000BFDA
:10169000032F01D103271EE0C6688C6806EA0B06FB
:1016A00004FA08F42643022FC66014D16FF0030237
:1016B000009E02EA590756F807C005F01C040F22E5
:1016C0000B69A2402CEA0202A3401A43F251D1F85E
:1016D00004C00CF00307026807FA08F302EA0B02E1
:1016E0001A431CF4403F0260A2D0002243F6440398
:1016F0000292C4F202031A6843F6004442F48042A4
:101700001A601A68C4F2010402F480420292029A3A
:1017100029F003024FF6084C2244CFF6FF7C52F822
:101720000C3005F00C070F26BE40B343019E06FAAD
:1017300007F73B4342F80C30A2684B6842EA0A07BD
:1017400043F60C4CDE0258BF22EA0A07A760C4F237
:10175000010CDCF800209E0242EA0A0758BF22EA88
:101760000A07CCF8007062689E0342EA0A0758BF75
:1017700022EA0A0767602268DB0342EA0A0758BFC9
:1017800022EA0A07276053E703B0BDE8F08F0000A4
:101790000069084018BF012070470000002A08BFF8
:1017A000090481617047000041F69060C2F20000B8
:1017B0000068704740F2000041F69061C2F20000FC
:1017C000C2F2000100780A68104408607047000007
:1017D00080B543F60040C4F20200016841F4007194
:1017E0000160016841F480610160016841F4807129
:1017F0000160032000F086F80F2000F005F800F0EB
:1018000027F8002080BD000070B540F20006C2F24B
:10181000000640F224013278C2F200014FF47A73DC
:101820000968B3FBF2F20446B1FBF2F1084601F09D
:101830008DFC0F2C4FF0010508D838B94FF0FF3060
:1018400021460022002500F031F87460284670BD62
:1018500082B0002043F640010190C4F202014A68C0
:1018600042F480424A604A6802F480420192019A3E
:101870000090086840F080500860086800F08050D0
:101880000090009802B07047002848BF704700F0F1
:101890001F01012202FA01F11C2202EAD0004EF2DD
:1018A0000012CEF2000281507047000010B54EF6D3
:1018B0000C5CCEF2000CDCF80030C3F3022E8EF08C
:1018C0000704042C28BF0424BEF103034FF0FF3E9D
:1018D0000EFA04F438BF0023A14399400EFA03F333
:1018E0009A43114300F00F0200F160430901043AEA
:1018F00003F564436244002848BF02F10C031970E9
:1019000010BD00004EF60C51CEF200010A684FF6F1
:10191000FF031A4060F30A2242F0806040F0FD703D
:1019200008607047704700000268002051627047ED
:101930002DE9F041D0F80080D8F8243091B1D8F8E2
:101940002870B1F1010C03EB17414FD05FFA8CF70F
:1019500008F58273042F0CF0030E0BD2002700242D
:101960002BE000BF43EA02410020C8F82810BDE880
:10197000F08100BF0CF0FC0508F1F406002400BF64
:1019800056F8107F44F0020001EB174144F00107C4
:10199000FFB253F82770C0B253F8200001EB174193
:1019A00001EB104044F00301C9B253F82110043494
:1019B000E7B2AF4200EB1141E2D1BEF1000F15D00A
:1019C00053F82700BEF1010F01EB10410ED0601C4F
:1019D000C0B253F82000BEF1020F01EB104105D058
:1019E000A01CC0B253F8200001EB104141EA0240B4
:1019F00008EB8C01C1F804010020BDE8F081000073
:101A0000D0F8E00403F0EEBA01EBC102D0F8E03404
:101A100000EB8200026A184603F048BA01EBC102EB
:101A2000D0F8E03400EB8200D0F86022184603F0D2
:101A30009BBA0000D0F8E00403F0D6BA10B54FFA14
:101A400081FC4FF4157201F00F0EBCF1000F48BF7E
:101A5000142290F8944402440EEBCE034FEAD11CBA
:101A600002EB8301012C81F801C002F823E004BFDE
:101A7000022010BD0268012380F894340446104609
:101A800004F0B0F8002084F8940410BDB0B50379D8
:101A900001F00F029A4284BF0120B0BD4BB24FF457
:101AA0001574002B48BF142400EB040E90F89444E6
:101AB00002EBC2034FEAD11C0EEB8301012C4FF065
:101AC000000481F801C08C700EF8232004BF0220AE
:101AD000B0BD0268012380F894340546104604F036
:101AE00075FB204685F89444B0BD000001F00F015D
:101AF00001EBC10100EB8100D0F8680270470000E3
:101B000010B54FFA81FE01F00F0CBEF1000F6FF31C
:101B1000DF220CEBCC010DD400EB810E00240EF57E
:101B200015718EF855428EF854C2CEF85C228EF8AC
:101B3000583209E000EB810101F814CF01244C7008
:101B40008A600B71A1F81AC0022B04BF00224A71EF
:101B500090F89424012A04BF022010BD02680123DA
:101B600080F894340446104603F0AEFE002084F85A
:101B7000940410BD10B501F00F0E0EEBCE0100EB7A
:101B800081044FF0000CC4F868C284F855C290F884
:101B900006C004F51571C4F86022C4F86432BCF1C3
:101BA000010F84F854E208BFCA610068624604F07D
:101BB00057FB002010BD0000B0B5027901F00F0402
:101BC00094424FF001022CD84BB24FF41575002B04
:101BD00048BF14254FEAD11C48BF2146054401EBFC
:101BE000C10305EB830181F801C090F894C48A70A9
:101BF000BCF1010F05F8234004BF0220B0BD02680C
:101C00000123054680F89434104604F009FB2CB9F2
:101C10002868A97905F29C4204F0AAFA002285F806
:101C200094241046B0BD000001F00F0C0CEBCC0169
:101C300000EB810101F814CF4FF0000C0B618379A8
:101C4000C1F814C04FF0010CCA60012B81F801C02B
:101C500008BFCA6180B500681A4604F001FB002085
:101C600080BD00002DE9F04F87B005688246284608
:101C700004F012FD10B107B0BDE8F08FDAF80000F3
:101C800004F038FD0028F6D0D5F80808C0F30D217F
:101C9000DAF80000CAF8D41404F02CFD0146DAF892
:101CA0000000890703D5416901F00201416105F592
:101CB0000061049104F01EFD0146DAF80000C90637
:101CC000059535D5816921F0100181612C6A04F0F8
:101CD0000F0000EBC0000AEB8001C4F3434006286C
:101CE00001F5157512D002281BD147F6F07014EAE1
:101CF000000616D0E96834090598224604F0FEFC77
:101D0000E86800EB1610E86008E000BF05980AF2EA
:101D10009C41082204F0F2FCC4F30A1468692044D0
:101D20006861DAF80000816941F010018161059D68
:101D300004F0E0FC000340F1F180DAF8000004F068
:101D4000B7FC002800F0EA8006460AF29C404FF4F7
:101D5000306800244FF0000B069019E005EB0800F6
:101D600002218160B80642BF05EB08002021816096
:101D7000B80442BF05EB08004FF4005181600BF13D
:101D8000010B760808F1200804F1240400F0C68055
:101D9000F007F4D0DAF800005FFA8BF9494604F056
:101DA000A1FC0746C00760D005EB08000121816057
:101DB000DAF8000008EB0001036C8A689AF8065014
:101DC000012D25D1150733D4950600F19F8043F2EC
:101DD0000B05C4F65475AB42059D02D312F40042C4
:101DE00030D10AEB0402D2F8743209696FF3DF4193
:101DF000A3EB0101C2F868129CBBD2F86432002B3D
:101E000000F08A80D2F860020844C2F8600228E03C
:101E100043F20B05C4F65475FF35AB4218D1059D4E
:101E200010040FD4900644BF2020886019E000BF42
:101E300043F20B00C4F65470059D834215D312F48F
:101E4000004012D04FF40040886038070FD43DE0C6
:101E5000059D34B9DAF8641219B90021069A04F024
:101E600087F950464946FFF7D9FD38072ED505EBCF
:101E7000080008218160DAF8000043F20B02056CCB
:101E800040448168C4F6547295420BD311F400416A
:101E900008D04FF400418160504600F019FD059DC7
:101EA0000AE000BF504600F013FD43F20B00C4F6F9
:101EB00054708542059D09D39AF80600012805D182
:101EC000DAF80000069A012104F052F9F80642BF40
:101ED00005EB080010218160B8077FF543AF686902
:101EE000000604D50499486840F4806048600AEB15
:101EF000040090F8571201297FF430AF002180F8D8
:101F000057125046494600F031FB27E720208860F1
:101F1000059D3807ABD4D9E701219FE7DAF8000027
:101F2000CDF818A004F0E6FB400340F1D3800698FA
:101F3000006804F0B5FB002800F0CC800646069847
:101F400005F5106900F1140100F29C40002703918F
:101F50000190CDF8089004E0760807F1010700F041
:101F6000B980F007F8D006985FFA87FA0068514602
:101F700004F0A6FB0446C00726D0049A07F00F0021
:101F8000516B012303FA00F021EA0000506309EBD2
:101F90004710836006988079012811D1039907EBD7
:101FA000C70001EB8000D0E902121144C1603FB9C3
:101FB000006928B90698019A0068012104F0D8F850
:101FC00006985146FFF720FD200742BF09EB471056
:101FD00008218160E00642BF09EB471010218160B3
:101FE000600642BF09EB471040218160A00716D56B
:101FF0002846394604F0E2FA039907EBC70001EBE3
:10200000800010F8031F012905D1002101700698F6
:10201000514600F0A7FA09EB471002218160200623
:102020009AD5039907EBC70001EB8008D8E9042093
:10203000824291D30699D8F808300C68111A994257
:1020400038BF0B4604EB4711D1F818C903F1030E52
:102050001FFA8CF3B3EB9E0F2DD301F5106900BF6F
:10206000D8F81020824224D9101A069AD8E902B171
:102070009579584538BF83461FFA8BF32046524660
:102080000095059D04F0E2FDD8F80C00D8F8141076
:102090005844C8F80C0001EB0B00C8F81400D9F83C
:1020A00018100BF1030289B2B1EB920FD8D2D8F815
:1020B0001020DDF8089082423FF64EAF07F00F0087
:1020C000D4F83418012202FA00F021EA0000C4F822
:1020D000340841E7DDF81890D9F8000004F00AFB55
:1020E000002821D4D9F8000004F004FB00053AD4FC
:1020F000D9F8000004F0FEFAC00445D504994868F8
:1021000020F001004860D9F80000102104F056FAD0
:1021100099F80400010600F0EC80C1B2042900F037
:10212000030035D200219AE00499486820F00100AC
:10213000486099F8CC04012808D1002089F8CC0423
:1021400048460021FFF7EEFB03E000BF484600F0E1
:10215000A3FBD9F80000416901F00041416104F09E
:10216000C9FA0005C4D504988068C00702D0484663
:1021700000F0D6FBD9F80000416901F4006141612B
:1021800004F0B8FAC004B9D4D9F80000DDE000BF0B
:102190006FF0600202EA411200234FF67F37002100
:1021A000EE18C6F80879D6F80059803325F40015E2
:1021B000C6F80059C6F8087BD6F8005B9A4225F4A9
:1021C0000015C6F8005BD6F8005B01F1040145F08C
:1021D0000065C6F8005BC6F82879D6F8205925F4C2
:1021E0000015C6F82059C6F8287BD6F8205B25F4E0
:1021F0000015C6F8205BD6F8205B45F00065C6F8F0
:10220000205BC6F84879D6F8405925F40015C6F881
:102210004059C6F8487BD6F8405B25F40015C6F84F
:10222000405BD6F8405B45F00065C6F8405BC6F8F9
:102230006879D6F8605925F40015C6F86059C6F8D3
:10224000687BD6F8605B25F40015C6F8605BD6F8AD
:10225000605B45F00065C6F8605B059DA0D1002875
:1022600047D005F5106202EB41134FF67F374E0160
:102270009F609559059B25F4001503F53063955132
:1022800003EB4115AF609D59012825F400159D51C0
:102290009D5945F000659D512BD04E1C02EB461414
:1022A0007501A760545903EB461624F400145451E9
:1022B000B7605F59022827F400175F515F5947F054
:1022C00000675F5115D0881C02EB40174FF67F3630
:1022D0004101BE60575803EB401027F400175750D8
:1022E0008660585820F400105850585840F000604C
:1022F0005850049F8421F869442240F00110F8618D
:1023000099F80F0000284FF00B0008BF142108BFF8
:1023100042F22B007B5808BF102218437850B8585F
:1023200040F00B00B850386809F29C4220F4FE607F
:102330003860D9F8000099F8061003F019FFD9F8B1
:102340000000416901F48051416104F0D3F9014674
:10235000D9F8000089041AD503F0F8FAD9F800007A
:1023600004F08CF9D9F8004089F8070000F0A4FBCC
:1023700099F807200146204604F0DCFB484600F0AF
:1023800075FAD9F80000416901F40051416104F087
:10239000B1F9000706D4D9F8000004F0ABF9000643
:1023A0000DD437E0484600F07BFAD9F800004169C7
:1023B00001F00801416104F09DF900062AD5059954
:1023C000886920F08000886199F80400022821D3F0
:1023D00009F5157409F11405012640F27B2704E084
:1023E0000136864207F1240714D219F80710012993
:1023F000F6D106F00F0000EBC0023006D9F800005D
:1024000005EB820158BF04EB820104F047F899F80C
:102410000400E5E7D9F8000004F06CF9C0024BD4E1
:10242000D9F8000004F066F9059D80027CD599F882
:102430000410022926D305F53260013909F51F720F
:10244000012304E02030013902F124021AD0076888
:102450001678012EF6D1B7F1FF3FF3DCD9F8D4643A
:1024600086EA1747FF07EDD102F8013CAF6947F054
:102470008007AF616F693F06E4D40499486840F46F
:1024800000704860D9F80000416901F40011416111
:1024900004F030F940004DD54846FFF7B1FAD9F8BD
:1024A0000000416901F08041416104F023F94007D7
:1024B0007FF5E1AB45E000BF99F80400022827D37F
:1024C000059909F1140401F5126509F13B064FF075
:1024D0000108012706E000BF01372035874206F1D9
:1024E000240615D229687278012AF5D1B1F1FF3F8F
:1024F000F2DC07F00F0000EBC001D9F8000004EB9C
:10250000810186F8008003F0C9FF99F80400E3E731
:10251000D9F80000416901F48011416104F0EAF842
:10252000059D80023FF583AFD9F8000004F0E2F882
:102530004000B1D4D9F8000004F0DCF840077FF582
:102540009AABD9F800004468610704D54846FFF704
:1025500071FAD9F8000041682143416007B0BDE835
:10256000F08F0000D0F8E00402F0A2BDD0F8E00443
:1025700002F0B4BD002804BF01207047F0B581B05F
:102580000446056890F8950428B9002084F894045E
:10259000204600F027F90320B5F1A04F84F89504F8
:1025A00004BF0020A071206803F0DAFD94E80F005A
:1025B000267C009603F0DAF9002840F000812068BC
:1025C000002104F0F1F8002840F0F98094F804E0CC
:1025D000BEF1000F00F0EC800EF0030CBEF1040F12
:1025E0004FF0000240D30EF0FC03A4F19000032151
:1025F000012500BFCE1E80F8A460A0F8BE608E1E2C
:1026000080F8C860A0F8E2604E1E80F8EC60A0F888
:10261000066180F81011A0F82A110E1D013180F812
:10262000A55080F8A820C0E92B22C0F8B42080F87B
:10263000C95080F8CC20C0E93422C0F8D82080F8F6
:10264000ED5080F8F020C0E93D22C0F8FC2080F871
:10265000115180F81421C0E94622C0F820219030A1
:1026600099423146C6D1F21EBCF1000F31D004F1BF
:10267000140002EBC20100EB8105012300F82120C8
:102680000021BCF1010F6B706A832971C5E9021149
:1026900029611ED0551C05EBC50600EB8607BCF171
:1026A000020F7B7000F826507D833971C7E9021153
:1026B00039610ED0911C01EBC10200EB82030125B0
:1026C00000F8221000205D7059831871C3E90200E0
:1026D0001861BEF1000F6BD0BEF1040F4FF0000285
:1026E00036D30EF0FC000321234600BFCF1E83F833
:1026F00054728F1E83F878724F1E83F8C0120D1D1E
:10270000013183F8552283F85822C3E99722C3F890
:10271000642283F8792283F87C22C3E9A022C3F8DB
:10272000882283F89D2283F89C7283F8A022C3E953
:10273000A922C3F8AC2283F8C12283F8C422C3E9DA
:10274000B222C3F8D022903381422946CED1EA1E6C
:10275000BCF1000F2CD004F5157002EBC20300EBA6
:1027600083070021BCF1010F797000F82320397133
:10277000C7E9021139611BD0531C03EBC30700EBFF
:102780008706BCF1020F717000F827303171C6E97D
:10279000021131610CD0911C01EBC10200EB8203EC
:1027A00000275F7000F822101F71C3E902771F61D4
:1027B00094E80F00277C009703F076FA30B10220EE
:1027C00084F89504012001B0F0BD00BF00206074C2
:1027D000012084F89504206803F056FA002001B027
:1027E000F0BD0000B0B586B000680024B0F1A04F85
:1027F0000594CDE903440294019401D006B0B0BD24
:1028000043F630050094C4F20205286801A940F09F
:1028100001002860286800F00100009000984FF443
:10282000C05001900220CDE90204032004900A2048
:1028300005900020C4F20200FEF7DAFE686800216D
:1028400040F08000686000946869002240F4804095
:102850006861686900F48040009000984320FFF7A9
:1028600025F84320FFF710F806B0B0BD10B50446B8
:10287000C07928B1022801D0FEF794FA012100E0C6
:102880000021D4F8E00402F0B1FCD4F8E004BDE883
:10289000104002F05FBC0000D0F8E00402F08CBCF5
:1028A000D0F8E00402F092BC90F89424012A04BF0E
:1028B0000220704710B5012280F894244174026808
:1028C0000446104604F024F9002084F8940410BD56
:1028D000D0F8E02400F29C41104602F09DBC0000BC
:1028E00010B5044690F89404012804BF022010BDDE
:1028F0002068012184F89414C168490606D5617BDB
:10290000012903D1816B41F48031816303F04EFED4
:10291000206803F0A9F9002084F8940410BD000099
:1029200010B50446D0F8E00402F0CCFC2068D0F8E2
:10293000001E41F00101C0F8001EE07A002808BF27
:1029400010BD4EF61050CEF20000016841F00601B5
:10295000016010BD002804BF012070472DE9F0413F
:1029600043F60808C4F202080446D8F8F8030D46F6
:1029700000F00700814207D988F8F853D8F8F80327
:1029800000F00700A84277D12068810717D54107DA
:1029900005D5D8F8001041F4E051C8F8001001073F
:1029A00005D5D8F8001041F46041C8F80010D8F8F7
:1029B0000010A26821F0F0011143C8F80010C00710
:1029C00040D1D8F8F80300F00700854207D288F814
:1029D000F853D8F8F80300F00700A8424CD120685B
:1029E000410707D5D8F80010E26821F4E0511143FF
:1029F000C8F80010000708D5D8F80000216920F4B5
:102A0000604040EAC100C8F8000000F05BF8D8F868
:102A1000001047F2F462C1F30311C0F60002515CEA
:102A200040F2240220FA01F140F20400C2F2000058
:102A30000068C2F200021160FEF7E6FE0020BDE869
:102A4000F08100BF6068811E022907D258F8081C77
:102A500089015CBF0120BDE8F08111E0012807D1A8
:102A600058F8081C89035CBF0120BDE8F08107E02D
:102A700058F8081C890703D40120BDE8F08100BF85
:102A8000D8F8001021F003010843C8F80000FEF751
:102A90008BFE064641F28837D8F80000616800F0E6
:102AA0000C00B0EB810F8CD0FEF77EFE801BB8428D
:102AB000F2D90320BDE8F08140F22400C2F2000008
:102AC0000068704710B543F60404C4F2020461685C
:102AD000C1F3810142F20040C0F2F400DFE801F0EE
:102AE00002040A0210BD00BF41F20020C0F27A00C9
:102AF00010BD00BF216801F03F0221682368490230
:102B0000C3F3881106D4A1FB00010023FDF7CEFB1F
:102B100007E000BF41F20020C0F27A004843B0FB5A
:102B2000F2F021680222C1F3014102EB4101B0FB46
:102B3000F1F010BD002804BF012070472DE9F041DD
:102B400082B00446007843F60006C007C4F20206CD
:102B50000CD0B06800F00C00042840F08180306890
:102B6000800303D56068002800F068812078800722
:102B70001BD5B06810F00C0F09D0B06800F00C0045
:102B8000082840F087807068400200F18380306838
:102B9000800703D5E068012840F050813068216942
:102BA00020F0F80040EAC10030602078000713D41C
:102BB000207840072AD4A569002D00F03A81B0683A
:102BC00000F00C00082840F0A580012D40F00E8197
:102BD000012002B0BDE8F0816069002800F0828029
:102BE0000020C4F247200121C0F8801EFEF7DCFD62
:102BF000054600BF706F8007DAD4FEF7D5FD401B95
:102C00000228F7D9032002B0BDE8F081306C5FEAFA
:102C1000C0080AD400200190306C40F0805030642D
:102C2000306C00F080500190019847F20007C4F228
:102C300000073868C00547D4386840F480703860B1
:102C4000FEF7B2FD054600BF3868C0053CD4FEF76C
:102C5000ABFD401B0228F7D9032002B0BDE8F0818C
:102C6000B06800F00C00082803D1706840023FF5FE
:102C700076AF61683068B1F5803F07D0B1F5A02F1D
:102C800040F09A8040F480203060306840F480301A
:102C900030609AE0E068002840F20000C4F247206B
:102CA0005CD001210160FEF77FFD0546306880079A
:102CB0003FF574AFFEF778FD401B0228F6D90320DC
:102CC00002B0BDE8F08100BFA168306F012905D0D6
:102CD000052955D140F004003067306F40F0010005
:102CE000306756E00020C4F247200021C0F8801E63
:102CF000FEF75AFD054600BF706F80077FF558AF9D
:102D0000FEF752FD401B0228F6D9032002B0BDE8B1
:102D1000F08100BF0027C4F2472700203866FEF785
:102D200043FD022D05460DD13068800140F18A80B7
:102D3000FEF73AFD401B02284FF00300F4D902B021
:102D4000BDE8F0813068800173D5FEF72DFD401B92
:102D500002284FF00300F5D9F1E700BF0021016020
:102D6000FEF722FD054600BF306880077FF51DAFE6
:102D7000FEF71AFD401B02284FF00300F4D9DEE7EE
:102D800020F001003067306F002920F00400306728
:102D90007AD0FEF709FD054641F28837306F80078B
:102DA00000F18480FEF700FD401BB842F6D90320F5
:102DB00002B0BDE8F08100BF20F4803030603068A0
:102DC000002920F4802030607AD0FEF7EDFC054623
:102DD000306880033FF5CAAEFEF7E6FC401B64286E
:102DE000F6D9032002B0BDE8F08100BF7068E16948
:102DF00000F480028A4221D1216A00F03F028A4217
:102E00001CD147F6C071626A0140B1EB821F15D137
:102E1000A16A4FF6FF73C903994300F44032A1F54C
:102E200080318A420AD1E16A00F07060B0EB016F34
:102E300004D1002002B0BDE8F08100BF012002B043
:102E4000BDE8F08104F11C052FCD084340EA821053
:102E5000D9034FF6FF729143A1F5803140EA056036
:102E60000843706001203866FEF79EFC044600BFF0
:102E700030688001DDD4FEF797FC001B02284FF07C
:102E80000300F5D95BE700BFFEF78EFC054641F273
:102E9000883700BF306F800708D5FEF785FC401BE0
:102EA000B8424FF00300F5D949E700BFB8F1000F71
:102EB0003FF581AE306C20F0805030647BE600BF7F
:102EC000FEF772FC054600BF306880037FF54EAE0A
:102ED000FEF76AFC401B64284FF00300F4D92EE78C
:102EE00070470000B0B582B001684A688B6803F093
:102EF0004105012D08D112F0400505D0016C02B04A
:102F0000BDE8B040084700BF9D0707D512F0800517
:102F100004D0416C02B0BDE8B040084713F4B07F64
:102F200018BF12F0200501D102B0B0BD5D0618D562
:102F300090F85150032D09D100200190C8680190EC
:102F400088680190019802B0B0BD00BF456D45F0A2
:102F50000405456500250195CD6801958D680195AD
:102F6000019D9D0604D4DB0511D4436DDBB9DBE77D
:102F7000456D45F001054565002501958D68019574
:102F80000D6825F040050D60019DDB05EDD5436D15
:102F900043F008034365002301938B680193019B71
:102FA000436D002BC0D04B68920723F0E0034B60C9
:102FB0004FF0010380F8513026D04A6844F2A5242E
:102FC00022F003024A60C16CC0F6000459B1054604
:102FD00008460C65FEF73CF90146284619B1416DDB
:102FE00041F040014165816C00299DD00C6504468B
:102FF0000846FEF72DF9002896D0606D40F040009D
:10300000606502B0B0BD00BF02B0BDE8B040FFF7E0
:1030100067BF000070B528B1416A29B10021016184
:10302000142106E0012070BD4168B1F5827F02D015
:103030001C21002242500026866290F8511029B9C6
:1030400080F85060054600F03DF82846022180F8DF
:10305000511090E82E0002F482720C6803F40443CD
:1030600024F040040C601A4405F4006305691A4416
:1030700005F0020345691A4405F001038569C46936
:103080001A4405F400731A4404F03803046A1A441D
:1030900004F08003846A1A4304F400531A430A605C
:1030A000436A042202EA154203F010031A444A60FC
:1030B000CA6922F40062CA610121466580F8511094
:1030C000304670BD80B586B043F600410068C4F25A
:1030D0000001002288420592CDE90322029201926A
:1030E00002D006B080BD00BF43F630000092C4F2AB
:1030F0000200036943F400430361036903F40043DE
:103100000093009B0092036843F00403036000688F
:1031100000F00400009000984FF4E050019002206D
:10312000CDE90202032004900620059001F5E63067
:1031300001A9FEF75DFA332000210022FEF7B6FB5D
:103140003320FEF7A1FB06B080BD0000411E002029
:10315000B0EB116F1CBF012070474EF21002CEF28F
:10316000000251604EF62351CEF20001F0230B70A5
:1031700007219060116070477047000070470000A1
:1031800090F83C20012A04BF02207047B0B501F13D
:1031900008053CCDD1E900CE23F47C5322F47052D3
:1031A0001A432EF4F0431A432CF4E0431A4324F458
:1031B000C0431A432A43C96922F480420368114379
:1031C0005964002180F83C100020B0BD90F83C20EC
:1031D000012A4FF0020254D010B580F83D20026859
:1031E000D2F804E0D2F808C00C682EF07003234334
:1031F00041F2FF74C4F20004A24253600EDC40F2BC
:10320000FF73C4F200039A4216DCB2F1804F2BD058
:1032100040F20043C4F2000324E000BF40F2FF3359
:10322000C4F201039A4213DC41F60003C4F2000326
:103230009A4219D0002313E040F60003C4F20003C1
:103240009A4211D040F60043C4F200030AE000BFE6
:1032500044F20003C4F201039A4205D040F2004355
:10326000C4F201039A4204D149682CF08003194347
:1032700091600121002280F83D1080F83C20BDE8DB
:103280001040104670470000C1B1042908D0082939
:1032900014BF45224422825C012A05D016E000BFFB
:1032A0004322825C012A11D10222082910D004296C
:1032B00014BF80F8452080F843200BE090F84220AE
:1032C000012A03D1022280F8422003E00120704746
:1032D00080F84420006801F00F010422036A02FA1A
:1032E00001F123EA01020262026A11430162416CA8
:1032F00041F2FF72C4F2000241F400419042416485
:103300000EDC40F2FF71C4F20001884216DCB0F11D
:10331000804F2BD040F20041C4F2000124E000BFF6
:1033200040F2FF31C4F20101884213DC41F6000192
:10333000C4F20001884219D0002113E040F60001D8
:10334000C4F20001884211D040F60041C4F20001ED
:103350000AE000BF44F20001C4F20101884205D036
:1033600040F20041C4F20101884206D1816801F0B7
:103370000701062904BF00207047016841F00101E0
:10338000016000207047000010B5026801F00F0EC8
:103390004FF0040C146A0CFA0EF324EA03031362D0
:1033A000136A1362146A41F211131C4206D1D2F857
:1033B00020C040F244441CEA040F0DD0146A1C42A1
:1033C00011D1136A40F2444423420CD1136823F014
:1033D0000103136007E000BF546C24F400445464FC
:1033E000146A1C42EDD0082912D004290AD0002901
:1033F0004FF0010114BF80F8451080F84210002002
:1034000010BD00BF012180F84310002010BD00BF97
:10341000012180F84410002010BD0000002804BFE6
:103420000120704710B5044690F83D0028B90020EF
:1034300084F83C00204600F01FF8022084F83D008C
:103440002068211D00F0B0FF012084F8460084F8B8
:103450003E0084F83F0084F8400084F8410084F87E
:10346000420084F8430084F8440084F8450084F85E
:103470003D00002010BD000000680021C4F20101E1
:10348000884218BF704780B582B00020019043F693
:103490004400C4F202000168002241F00101016011
:1034A0000068002100F00100019001981820FEF74B
:1034B000FDF91820FEF7E8F9192000210022FEF797
:1034C000F5F91920FEF7E0F91A2000210022FEF795
:1034D000EDF91A20FEF7D8F91B2000210022FEF793
:1034E000E5F91B2002B0BDE88040FEF7CDB9000031
:1034F00090F83C20012A4FF002026CD080B580F891
:103500003D20D0F800C04FF67772DCF8083023EA8F
:103510000202CCF808200B684F2B29DC1F2B45DD5D
:10352000202B46D0302B44D0402B40F0AF80D1F838
:1035300004E0C968DCF82030DCF8202022F0010229
:10354000CCF82020DCF8182022F0F00242EA011129
:1035500023F00A0242EA0E02CCF81810CCF8202020
:10356000DCF8081041F0470121F0300128E000BFED
:103570006F2B33DDB3F5005F74D0B3F5805F21D0DE
:10358000702B40F08380D1E901E3C968DCF80820A2
:1035900043EA0E0322F47F4243EA01211143CCF8AF
:1035A0000810DCF8081041F0770109E00BB1102B8E
:1035B0006CD1DCF8081021F07001194341F00701CB
:1035C000CCF808100022012180F83D10002180F87D
:1035D0003C10BDE880401046704700BF502B21D002
:1035E000602B53D1D1F804E0C968DCF82030DCF856
:1035F000202022F01002CCF82020DCF8182022F441
:10360000704242EA013123F0A00242EA0E12CCF8E5
:103610001810CCF82020DCF8081041F0670121F0E8
:103620001001CDE7D1F804E0C968DCF82030DCF8FF
:10363000202022F00102CCF82020DCF8182022F013
:10364000F00242EA011123F00A0242EA0E02CCF82B
:103650001810CCF82020DCF8081041F0570121F0B8
:103660002001ADE7D1E901E3C968DCF8082043EAAD
:103670000E0322F47F4243EA01211143CCF80810E3
:10368000DCF8081041F480419AE700BF01229AE774
:103690007047000070B504460068C5680669B10748
:1036A00016D515F0020113D06FF00201016101215E
:1036B00021778069800703D02046FFF7E9FF05E006
:1036C000204600F08FF8204600F0CEF90020207749
:1036D000700719D515F0040016D020686FF00401AA
:1036E000016102212177806910F4407F04D02046D7
:1036F000FFF7CEFF06E000BF204600F073F820463B
:1037000000F0B2F900202077300717D515F0080037
:1037100014D020686FF00801016104212177C0698D
:10372000800703D02046FFF7B3FF05E0204600F0F6
:1037300059F8204600F098F900202077F00619D5B6
:1037400015F0100016D020686FF0100101610821FB
:103750002177C06910F4407F04D02046FFF798FF1E
:1037600006E000BF204600F03DF8204600F07CF95E
:1037700000202077F00718BF15F0010002D13006B5
:1037800009D412E020686FF001010161204600F0C9
:103790004BFA300609D515F0800006D020686FF08E
:1037A000800101612046FFF7E7FC700609D515F09E
:1037B000400006D020686FF040010161204600F013
:1037C00035FAB00658BF70BD15F0200008D021684A
:1037D0006FF0200220460A61BDE87040FFF7CEBCC2
:1037E00070BD00007047000090F83C30012B04BF12
:1037F000022070474FEAB202032A00F2FF802DE94F
:10380000F043DFE802F003B13F7F00BF036840F2FE
:1038100000461C6A1A6A24F0020422F001021A62AD
:103820001A46D3F804C052F818EF8F6843F4806545
:10383000C4F20106B54244EA070405D1CF6824F07A
:103840000C0427F004073C430F68B54206D1D1E9C8
:1038500005582CF440762E4346EA080C2EF07306E9
:103860003743C3F804C09F614F6809695F631C62F6
:103870009F6947F008079F619F6927F004079F61D0
:10388000B1E000BF036840F200481C6A1A6A24F4E1
:10389000007422F480721A621A46D3F804C052F8F7
:1038A0001CEF8F6843F48065C4F20108454544EA83
:1038B000072408D1CF6840F2FF463F0224F4406459
:1038C00027EA06063443D1F80090454506D1D1E9F0
:1038D00005562CF440572E4347EA061C2EF073077A
:1038E00047EA0907C3F804C0DF614F680969DF636D
:1038F0001C62DF6947F00807DF61DF6927F0040712
:10390000DF6170E0036840F20045D3F820C01A6A16
:1039100043F4806722F480521A621A465C6852F8B7
:103920001C8FD1F800E08E68C4F20105AF4204D1CB
:103930004D6924F4804444EA85142CF4005747EA86
:10394000063728F4E64646EA0E265C60DE614E68DD
:1039500009691E641F62DF6947F40067DF61DF6980
:1039600027F48067DF613DE0036840F200481C6A8D
:103970001A6A24F0200422F010021A621A46D3F8C0
:1039800004C052F818EF8F6843F48065C4F2010850
:10399000454544EA071407D1CF686FF0400624F08C
:1039A000C00406EA07163443D1F80090454506D115
:1039B000D1E905562CF440672E4347EA860C2EF4D5
:1039C000E64747EA0927C3F804C09F614F680969C1
:1039D0009F631C629F6947F400679F619F6927F49A
:1039E00080679F6109021368194311600021BDE8D7
:1039F000F043002280F83C20084670470121002255
:103A000080F83C2008467047002804BF012070471A
:103A100010B5044690F83D0028B9002084F83C0019
:103A2000204600F01FF8022084F83D002068211D88
:103A300000F0BAFC012084F8460084F83E0084F8C7
:103A40003F0084F8400084F8410084F8420084F884
:103A5000430084F8440084F8450084F83D000020C9
:103A600010BD00007047000070470000C1B104297C
:103A700008D0082914BF41224022825C012A05D0C7
:103A800016E000BF3F22825C012A11D102220829E0
:103A900010D0042914BF80F8412080F83F200BE0AB
:103AA00090F83E20012A03D1022280F83E2003E054
:103AB0000120704780F84020006801F01F010122BA
:103AC000036A02FA01F123EA01020262026A114367
:103AD00041F2FF72C4F20002904201620CDC40F23B
:103AE000FF71C4F20001884214DCB0F1804F37D07E
:103AF00040F2004116E000BF40F2FF31C4F2010184
:103B0000884215DC41F60001C4F20001884227D04A
:103B1000002115E040F60001C4F2000188421FD0E8
:103B200040F60041C4F20001884219D01FE000BFF6
:103B300044F20001C4F20101884211D040F2004178
:103B4000C4F20101884212D1416C40F2004340F4BA
:103B50008062C4F2010341F400419A42416406D1FB
:103B6000816801F00701062904BF00207047016841
:103B700041F00101016000207047000010B50268AB
:103B800001F01F0E4FF0010C146A0CFA0EF324EA38
:103B90000303136240F20043D2F820C042F4806471
:103BA000C4F201039C42C2F820C009D1136A41F259
:103BB0001114234204D1136A40F2444423420FD02B
:103BC000136A41F21114234213D1136A40F24444A0
:103BD00023420ED1136823F00103136009E000BFF4
:103BE000536C23F400435364136A41F211142342CB
:103BF000EBD0082912D004290AD000294FF0010186
:103C000014BF80F8411080F83E10002010BD00BFA6
:103C1000012180F83F10002010BD00BF012180F875
:103C20004010002010BD00007047000070470000E9
:103C3000FEE70000B0B584B041F6640042F2000136
:103C400001230024C2F20000C4F20101C0F6007397
:103C5000012503944FF48032047680F82040C0E9B7
:103C60000A34C56180F8304080E81600C0E903449A
:103C70004561FDF7DBF9002818BFFDF793F80A202E
:103C8000CDE9000541F66400C2F2000069460294E5
:103C9000FDF78EF8002818BFFDF784F804B0B0BD1A
:103CA00080B582B00020019043F63000C4F20200DB
:103CB0000168002241F4800101600068002100F4E5
:103CC0008000019001983820FDF7F0FD382002B007
:103CD000BDE88040FDF7D8BD2DE9F04387B000274F
:103CE00043F630000697CDE90477CDE902770197D6
:103CF000C4F20200016840F2004841F00401016092
:103D00000168C4F2020801F00401019101990197D0
:103D10000168002241F0800101600168232401F064
:103D20008001019101990197016841F00201016050
:103D3000016801F00201019101990197016841F0C8
:103D4000010101600068232100F001000190019849
:103D50004046FDF723FD08F5806528464FF40071C5
:103D600000224FF40079FDF719FD02AE0294012400
:103D700040463146CDE903470597FDF739FC4FF43E
:103D8000E07002904FF44410CDE903072846314615
:103D9000FDF72EFC28463146CDE90294CDE90477A3
:103DA000FDF726FC8020CDE9020740463146049409
:103DB000FDF71EFC172000210022FDF777FD1720DC
:103DC000FDF762FD07B0BDE8F0830000B0B541F635
:103DD000F05043F60041C2F20000C4F200014FF47B
:103DE000827200234FF4006C4FF0010E4FF4007408
:103DF000102580E80E100A21C0E9043EC0E90645FE
:103E0000C0E90833C0E90A31FFF704F9002808BF08
:103E1000B0BDBDE8B040FCF7C5BF00002DE9F041E2
:103E20009CB040F2000841F64860C4F2010800214D
:103E3000C2F2000042F2CF0280231591CDE91311A6
:103E40001191CDE90F11CDE90D11CDE90B11CDE99E
:103E50000911CDE90711CDE90511CDE90311CDE92E
:103E60000111C0E90081C0E90212C0E904118361B7
:103E7000FFF7D4FA002818BFFCF794FF4FF48050E6
:103E8000129041F64860C2F2000012A9FFF730FB21
:103E9000002818BFFCF786FF41F64860C2F2000018
:103EA000FFF7B2FD002818BFFCF77CFF41F6486021
:103EB0000024C2F2000010A9CDE91044FFF786F9F2
:103EC000002818BFFCF76EFF6020CDE9090441F619
:103ED0004860C2F2000009A90022CDE90B44CDE9F7
:103EE0000D440F94FFF780FC002818BFFCF75AFF21
:103EF00041F64860C2F2000009A90422FFF774FCF1
:103F0000002818BFFCF74EFF41F64860C2F20000DF
:103F100009A90822FFF768FC002818BFFCF742FF38
:103F200041F648644FF40050C2F2000400260690A7
:103F300001A920460596CDE90366CDE901660896FC
:103F4000FFF71EF9002818BFFCF72CFF20681B960E
:103F50004045CDE919661896179603D01CB0BDE808
:103F6000F08100BF002643F630001696C4F202002E
:103F7000016817AC41F0020101600168022701F0FD
:103F800002011691169916960168012541F001016A
:103F900001600068214600F00100169016984FF469
:103FA0006040179008F58230CDE918761A961B9577
:103FB000FDF71EFB4FF4E060CDE9170708F58030F0
:103FC0002146CDE919661B95FDF712FB1CB0BDE833
:103FD000F081000080B541F2885040F20801C2F241
:103FE0000000C2F20001002200F026FF002818BFE6
:103FF000FCF7D8FE41F2885040F22801C2F20000DE
:10400000C2F2000101F08AF9002818BFFCF7CAFECD
:1040100041F2885040F2C401C2F20000C2F2000135
:1040200000F00CFC002818BFFCF7BCFE41F28850E1
:10403000C2F2000001F09CF9002808BF80BDBDE875
:104040008040FCF7AFBE0000FEE7000070B540F214
:104050005815C2F200052A79012A29D141F648648F
:1040600042F2D002C2F20004914238BF0A462168EF
:1040700001380528AA6000F2B180DFE800F0037380
:10408000415B1F8B0020486320460021FFF776FD2F
:1040900020460021FFF778F92889216888632046A7
:1040A0000421FFF771F920460421FFF7DFFC19E036
:1040B0005AA00F21BDE87040FCF73EBE4A6320467F
:1040C00000210025FFF760F920460021FFF7CEFC14
:1040D0002068042185632046FFF750FD2046042117
:1040E000FFF752F9206842F2D001C163204608214F
:1040F000FFF744FD20460821BDE87040FFF7C4B833
:1041000042F2D0004863204600210026FFF736FD2A
:1041100020460021FFF7B8F82889216888632046E7
:104120000421FFF731F920460421FFF79FFC2068A6
:10413000C66369E04A63204600210025FFF724F9A1
:1041400020460021FFF792FC206842F2D0018163F3
:1041500020460421FFF712FD20460421FFF794F8C2
:1041600050E000BF42F2D000486320460021002604
:10417000FFF704FD20460021FFF786F820680421A0
:1041800086632046FFF7FAFC20460421FFF7FCF87F
:1041900016E000BF0020486320460021FFF7EEFC38
:1041A00020460021FFF7F0F8206842F2D001816339
:1041B00020460421FFF7E2FC20460421FFF764F8C3
:1041C00028892168C86320460821FFF7DDF82046CA
:1041D0000821BDE87040FFF749BC00BF00254D63D2
:1041E00020460021FFF7CAFC20460021FFF7CCF84B
:1041F0002068042185632046FFF7C0FC2046042187
:10420000FFF7C2F82068C56320460821FFF7B6FC17
:1042100020460821BDE87040FFF7B6B86D6F746F97
:10422000722073746F702E2E2E0D0A00F0B581B0BF
:1042300040F25817C2F20007387901281CBF01B0BC
:10424000F0BD40F60004C4F2020420464021FDF710
:104250009FFA054620468021FDF79AFA0646204639
:104260004FF48071FDF794FA710041EA850141EA4B
:104270000002B9683A70D0B27A7101B0BDE8F0407E
:10428000FFF7E4BEFEE7000041F60C10C2F20000AA
:10429000FDF7E8BC7047000041F6F050C2F20000A4
:1042A000FEF720BE806B0021C187C186FEF718BED5
:1042B00070470000FDF77EBA70B592B006AC20469C
:1042C0003021FCF73BF9002543F640000595CDE988
:1042D0000355CDE901550095C4F20200016802269C
:1042E00041F080510160006800F08050009000981B
:1042F00047F200000095C4F20000016841F48041DB
:104300000160006800F48040009000980120069051
:104310004FF4803007904FF480000D9004200E90F1
:10432000A820CDE90F060720119020460C96FEF735
:1043300001FC18B172B600BFFEE700BF0F20CDE947
:1043400001064FF4A05004904FF48050059001A84E
:1043500005210395FEF7FEFA10B172B6FEE700BF25
:1043600012B070BD4EF68850CEF20000016841F4E4
:10437000700101607047000041F64860C2F2000021
:10438000FFF788B941F64860C2F20000FFF782B932
:1043900041F64860C2F20000FFF77CB941F6486080
:1043A000C2F20000FFF776B9B0B540F6FF3E0568EF
:1043B000C4F2000E40F2004C7045C4F2010C25DC42
:1043C000B0F1804F2FD040F20043C4F20003984276
:1043D00029D040F60003C4F20003984223D041F6EE
:1043E000FF73C4F20003984228DC70453ADCB0F158
:1043F000804F5BD040F20043C4F20003984255D096
:1044000040F60003C4F200034EE000BF40F6004354
:10441000C4F20003984206D0604504D00023C4F2E1
:1044200001039842DBD14B6825F0700243EA020594
:1044300041F6FF73C4F200039842D6DD43F6FF73E2
:10444000C4F2010398421FDC42F20003C4F20003ED
:1044500098422BD00023C4F20103984226D0604535
:1044600024D028E040F60043C4F2000398421DD057
:1044700041F60003C4F20003984217D041F600430E
:10448000C4F2000310E000BF44F20003C4F20103D1
:1044900098420BD044F60003C4F20103984205D0C1
:1044A00044F20043C4F20103984204D1CB6825F4DE
:1044B000407243EA02050A688C684B69C46240F4A2
:1044C00080648262644504BF09690163026825F063
:1044D000800142F00402194302600122426101603E
:1044E000B0BD0000D0F8D42200EB820CDCF8C03262
:1044F000002B04BF03207047B0B501F00F0404EB9C
:10450000840200EB820E5EF8142F5AB1D0F8C85224
:1045100004EBC40405EB8404E469B2FBF4F505FB89
:1045200014229AB10020C3F81402DCF8C422D2F895
:1045300010C0BCF1000F08BFB0BDD3F808020A4696
:1045400003F50471E0470020B0BD00BF0022002346
:10455000CEF8002000F0C4FE0020B0BDB0B5D0F809
:10456000D42200EB8202D2F8C0529DB1044600F082
:104570004DFDD4F8D412C5F80C0204EB8101D1F83A
:10458000C412D5F80402CA6805F5037190470020EB
:10459000B0BD00BF0320B0BD70B58121044600F05E
:1045A00073FC00252046012184F8375000F06CFC94
:1045B0002046822184F8775100F066FCD4F8D402BA
:1045C00004F5307656F8201084F84B50656489B1B4
:1045D00004EB8000D0F8C40240688047D4F8D402CD
:1045E00056F8200001F068F9D4F8D40246F82050BB
:1045F000C4F8BC52002070BD10B5D0F8D41200EB46
:104600008100D0F8C0428CB1D0F8C41259B194F8EE
:104610000002FF2807D08B6894F8012221469847B2
:10462000FF2084F80002002010BD00BF032010BD51
:10463000014640F2A4000A22C2F200000A8070473C
:10464000F0B581B040F26007C2F200070446384678
:10465000822100F02FFB06463846012100F02AFB9C
:1046600005463846812100F025FB002E1CBF102195
:10467000B171002D1CBF4021A98000281CBF402122
:104680008180432140F26000C2F20000218001B02D
:10469000F0BD0000F0B581B040F26007C2F2000743
:1046A00004463846822100F005FB064638460121C3
:1046B00000F000FB05463846812100F0FBFA002E91
:1046C0001CBF1021B171002D1CBF4FF40071A980D7
:1046D00000281CBF4FF400718180432140F260002C
:1046E000C2F20000218001B0F0BD0000F0B581B041
:1046F00040F26007C2F2000704463846822100F00B
:10470000D9FA06463846012100F0D4FA0546384663
:10471000812100F0CFFA002E1CBF1021B171002DB5
:104720001CBF4021A98000281CBF4021818043215B
:1047300040F26000C2F20000218001B0F0BD000034
:104740002DE9F04104464FF4077001F0B7F8002856
:1047500050D04FF407710546FBF7F0FED4F8D402B1
:10476000402704EB8000C0F8C052207CC4F8BC5243
:10477000002808BF4FF400772046812102223B46E3
:10478000022600F0C1FC4FF0010820460121022260
:104790003B4684F8378000F0B7FC10206064204668
:1047A00082210322082384F8778100F0ADFCD4F83D
:1047B000D4020027C5F8047204EB8000D0F8C402CC
:1047C00084F84B8000688047C5F81472C5F81872E9
:1047D000D5F8042252B1207C01210028204614BFC4
:1047E00040234FF4007300F0A3FC00263046BDE8E0
:1047F000F08100BFD4F8D402002104EB8000C0F89F
:10480000C0120220BDE8F081D0F8D41200EB810183
:10481000D1F8C012002904BF0320704780B590F87A
:1048200010C0D1F8042240230121BCF1000F08BFC1
:104830004FF4007300F07CFC002080BD00290FBF06
:104840000320D0F8D42200EB8200C0F8C41218BFB5
:1048500000207047D0F8D42200EB8200D0F8C002CC
:1048600000280EBF0320C0F804120020704700008B
:10487000D0F8D43200EB8300D0F8C00200280FBF7C
:104880000320C0F80812C0F8102200207047000072
:10489000F0B581B0D0F8D42200EB8203D3F8C04247
:1048A0000022002C8DF80320ADF8002060D00D7898
:1048B00015F0600218D0202A58D1CA88002A29D0C1
:1048C0006DB2B5F1FF3F2FDD4978402A84F8001220
:1048D000214628BF402284F8012200F099F80024E4
:1048E000204601B0F0BD00BF4A780B2A3ED8002414
:1048F000DFE802F008063C3C3C3C3C3C3C3C2A38AF
:10490000EEE700BF90F89C22032A2FD169460222CD
:1049100021E000BFD3F8C402002283684878002455
:104920009847204601B0F0BDD3F8C43206469D68D2
:104930004B780F4618462146A847FA883046072A82
:1049400028BF0722214606E090F89C22032A0DD1B9
:104950000DF10301012200F077F80024204601B098
:10496000F0BD00BF90F89C22032AB9D000F044F8B3
:104970000324204601B0F0BDD0F8D41200EB810131
:10498000D1F8C022002A04BF03207047D2F81412C5
:1049900000294FF0010101D00846704780B5C2F8E8
:1049A0001412D2F81032D2F808228121836200F06A
:1049B00097FC0021BDE880400846704780B5D0F8DC
:1049C000B82252689047002818BF032080BD00001D
:1049D000002070470020704780B513460A4600212A
:1049E00000F0A6FB002080BD80B513460A460021DA
:1049F00000F076FC002080BD10B58021044600F058
:104A00003DFC20460021BDE8104000F037BC00000E
:104A100080B513460A460321C0F894120021C0F85D
:104A20006421C0E9553300F083FB002080BD000005
:104A300080B50521C0F8941200210022002300F067
:104A400077FB002080BD000080B513460A46022196
:104A5000C0F8941200214262C0E9053300F040FC26
:104A6000002080BD80B50421C0F8941200210022EE
:104A7000002300F035FC002080BD000010B540F29E
:104A80006814C2F200040A4602A0214600F054F95C
:104A9000204610BD43444320436F6E6669670000A3
:104AA00040F2B0001222C2F200000A8070470000FB
:104AB00010B540F26814C2F200040A4602A0214672
:104AC00000F03AF9204610BD43444320496E746516
:104AD000726661636500000040F2D8000422C2F2F1
:104AE00000000A807047000010B540F26814C2F25E
:104AF00000040A4602A0214600F01EF9204610BD1F
:104B000053544D6963726F656C656374726F6E693F
:104B10006373000010B540F26814C2F200040A4644
:104B200002A0214600F008F9204610BD53544D3331
:104B300032205669727475616C20436F6D506F72CC
:104B40007400000047F61020C1F6FF700268836809
:104B50004FF01A0C9B18A1F800C000F0A680B0B569
:104B60004FF0370C1A0F0CEB13714068B3F1204F64
:104B700038BF02F1300140F2DC02C2F20002917053
:104B800019014FF0000E0CEB117582F803E0C3F32E
:104B90000364B1F1204F38BF04F1300519021571DB
:104BA0000CEB117582F805E0C3F30354B1F1204F0B
:104BB00038BF04F13005190395710CEB117582F8BB
:104BC00007E0C3F30344B1F1204F38BF04F13005CF
:104BD000190415720CEB117582F809E0C3F3033464
:104BE000B1F1204F38BF04F13005190595720CEB77
:104BF000117582F80BE0C3F30324B1F1204F38BFE5
:104C000004F1300519061573C3F303140CEB117589
:104C1000B1F1204F4FEA037103F00F0382F80DE06A
:104C200038BF04F1300503F13704957382F80FE0C3
:104C3000B1F1204F38BF03F13004010F0CEB1073BA
:104C4000147482F811E0B0F1204F38BF01F1300345
:104C500001010CEB1174937482F813E0C0F3036349
:104C6000B1F1204F38BF03F1300401021475C0F3D5
:104C700003530CEB1174B1F1204F4FEA003182F86D
:104C800015E038BF03F130040CEB1173947582F812
:104C900017E0C0F30340B1F1204F38BF00F13003FB
:104CA000137682F819E0BDE8B04040F2DC00C2F2B1
:104CB00000007047B0F802C003789C459CBF0020FC
:104CC000704780B508E000BF82788A4208BF80BD87
:104CD00073449AB262452DD290F800E07044427855
:104CE000052A02D182788A4225D073449AB262455D
:104CF00020D290F800E070444278052A02D18278F0
:104D00008A4218D073449AB2624513D290F800E0F8
:104D100070444278052A02D182788A420BD07344CB
:104D20009AB2624506D290F800E070444278052AB3
:104D3000CAD0CDE7002080BD002808BF704710B55D
:104D400003783BB300F1020EF44600BF1CF8013CAF
:104D50005BB19CF8003043B19CF801302BB19CF85A
:104D600002300CF1040C002BF0D14FF0000C00BF0E
:104D70001EF8013C93B19EF800309BB19EF80130C3
:104D8000A3B19EF802300CF1040C002B0EF1040EBE
:104D9000EED10DE04FF0000C0AE000BF4CF0010C2A
:104DA00006E000BF4CF0020C02E000BF4CF0030C28
:104DB0005FFA8CFC022303EB4C03138003220B707D
:104DC0004A700378A3B3023002224FF0000C00BFF8
:104DD0005FFA82FE51FA82F401F80E3084F801C0C5
:104DE00010F8013C23B3941C5FFA84FE51FA84F45A
:104DF00001F80E3084F801C00378CBB1141D5FFABE
:104E000084FE51FA84F401F80E3084F801C043782E
:104E100073B1941D5FFA84FE51FA84F401F80E30E8
:104E200084F801C083780832002B00F10400CFD150
:104E3000BDE8104070470000002804BF0320704701
:104E40000023C0F8B832C0F8C4320029C0F8D0320C
:104E500018BFC0F8B412012180F89C12027000F053
:104E6000D9B8000080B5D0F8C802FCF70FFE40F2B8
:104E70000032C100C0F2013222FA01F1032888BFDA
:104E80000321C8B280BD000080B5D0F8C802FCF78D
:104E9000D5FD40F20032C100C0F2013222FA01F128
:104EA000032888BF0321C8B280BD0000B0B589B116
:104EB00090F89C22032A54D1D0F8B8225269002AD3
:104EC0004FD00023C0F8D4329047002808BF0020FC
:104ED000B0BD00BFD0F8941202293BD18169038C88
:104EE00099420FD9CA1A416A826119444162044643
:104EF000FFF77AFD204600210022002300F018F978
:104F000027E000BF10D142698A420DD3D0F8981231
:104F10008A4209D20021002204460025FFF764FDE1
:104F2000C4F89852E6E700BF90F89C12032909D113
:104F3000D0F8B812C96829B10022C0F8D4220446BA
:104F4000884720468021044600F098F92046FFF764
:104F50006FFD204690F8A01200291CBF002180F8A8
:104F6000A0120020B0BD000010B579B190F89C22CD
:104F7000032A22D1D0F8B8229269F2B10023C0F8F6
:104F8000D4329047002808BF002010BDD0F89412FA
:104F9000032912D1D0F85811B0F8602191420FD9ED
:104FA0008B1AD0F86411C0F858311144C0F864115C
:104FB000934288BF1A46FFF70FFD002010BD00BFC7
:104FC00090F89C12032909D1D0F8B812096929B1C7
:104FD0000022C0F8D422044688472046FFF742FD4D
:104FE000002010BD00207047012180F89C12D0F8ED
:104FF000B812002904BF0020704780B54A680179C3
:105000009047002818BF032080BD0000D0F8C802D8
:10501000FCF76CBD017809B10020704710B541F66E
:105020000C11C2F20001C1F8E004C0F8C8124FF040
:10503000A0400860042008714FF40070C88002206E
:10504000C1F809000020C8810846FDF793FA00283E
:1050500018BFFBF7A7FE41F60C14C2F2000420466D
:105060008021FCF761FC204600214022FCF760FC17
:10507000204601218022FCF75BFCBDE810400020A7
:1050800070470000D0F8C80201F07F034AB203EB7A
:10509000C30301EBC10100EB830300EB810000F2CD
:1050A0005620002A48BF03F1160000787047000020
:1050B000D0F8D42200EB8202D2F8B822002A04BF32
:1050C0000320704790F89C32032B05D1126A1AB165
:1050D00080B59047002080BD00207047D0F8D422D2
:1050E00000EB8202D2F8B822002A04BF03207047E6
:1050F00090F89C32032B05D1526A1AB180B59047C3
:10510000002080BD0020704780B59446D0F8C802CA
:105110001A466346FCF7F4FC40F20032C100C0F2CC
:10512000013222FA01F1032888BF0321C8B280BDF1
:1051300080B5D0F8C802FCF71DFD40F20032C10076
:10514000C0F2013222FA01F1032888BF0321C8B25C
:1051500080BD0000F0B581B00126002580F89C627A
:10516000C0F8945204464560D0F8B802C4F8A4527E
:1051700084F8A05240B1426832B1204600219047E5
:105180000546002818BF03252046002100224023A1
:105190004027FFF7B9FF204680210022402384F8F2
:1051A0006361A4F86071FFF7AFFF84F823602846BD
:1051B000278401B0F0BD000090F89C12042904BFC0
:1051C00090F89D1280F89C120020704790F89C1275
:1051D000032908D1D0F8B81229B1C96919B180B52D
:1051E0008847BDE88040002070470000024600204C
:1051F0001174704780B5D0F8C802FDF755FB40F236
:105200000032C100C0F2013222FA01F1032888BF46
:105210000321C8B280BD0000B0B500F2AA24054643
:10522000204600F06FF80121C5F8941295F8AA12F3
:10523000B5F8B03201F01F02022AC5F898320FD03B
:10524000012A07D092B928462146BDE8B04000F0B7
:1052500091B800BF28462146BDE8B04000F0F4BA3E
:1052600028462146BDE8B04000F040BA01F0800178
:105270002846BDE8B04000F001B8000080B5D0F885
:10528000C802FCF799FC40F20032C100C0F20132C2
:1052900022FA01F1032888BF0321C8B280BD0000B3
:1052A00080B5D0F8C802FDF71BFB40F20032C10008
:1052B000C0F2013222FA01F1032888BF0321C8B2EB
:1052C00080BD0000014690F89C02042204281CBF07
:1052D00091F89C0281F89D02002081F89C22704781
:1052E00080B5D0F8C802FCF79FFC40F20032C10044
:1052F000C0F2013222FA01F1032888BF0321C8B2AB
:1053000080BD00000A7802704A7842704A88428064
:105310008A888280C988C1807047000010B582B039
:1053200004460020ADF80600B1B1D4F8D42204F54B
:105330002E70C4F8B81250F82200C16A21B10DF1E4
:1053400006008847C4F8D002D4F8D8020130C4F867
:10535000D802002002B010BD032002B010BD000032
:10536000D0F8B822002A04BF002070471268104706
:10537000FFF796BF0A78C2F34112531E022B07D2E1
:10538000D0F8D42200EB8202D2F8B82292681047FB
:1053900070B582B0002A40F0CB804A78092A00F22A
:1053A000C780DFE802F0052FC557C56183C51B41E3
:1053B00090F89C22013A022A00F2BA80C988022998
:1053C00040F0B680D0F8A4120322002908BF0122C1
:1053D000014641F80C2F02226AE100BFC988012969
:1053E00040F0A68090F89C124A1E022A80F09A8013
:1053F0000024014641F8084F0122FFF725FB204613
:1054000002B070BD90F89C22013A022A00F290800E
:1054100049880024012940F09480C0F8A442FFF795
:1054200021FB204602B070BD498840F26415C2F2EB
:10543000000511F0FE0F297052D080210446FFF7BD
:105440001DFF20460021FFF719FF0324204602B06C
:1054500070BD00BF4A88022A60D0012A68D10121AC
:10546000C0F8A4122DE100BF8A88002A60D1CA8842
:10547000002A5DD14D887F2D5AD890F89C120329BF
:1054800056D0E9B280F89E520446FFF7B3FE20469C
:105490002646FFF7E7FA002D14BF0220012086F808
:1054A0009C020024204602B070BD00BF4A884FF025
:1054B000FF3303EB12230026062BADF8066000F243
:1054C000FD80DFE813F007004F004100FB00FB0008
:1054D0005F006D000D46D0F8B4120A68D7E000BF37
:1054E00090F89C22032A6BD0022A40F091800A0691
:1054F00000F0E78001F00102C9B242600546FFF703
:105500002FFF002800F0A480044628468021FFF7E2
:10551000B5FE28460021FFF7B1FE73E0497980F817
:10552000A012CEE0032903D1011D0122C0E000BF7B
:1055300080210446FFF7A2FE204600210024FFF749
:105540009DFE204602B070BDD2B2052A00F2B680A0
:10555000DFE802F004948C90889800BFD0F8B42261
:10556000526892E00D46017C0446D0F8B80200294A
:105570000CBF816AC16A0DF106008847014602200E
:105580001CE000BF027C002A40F098800446D0F85E
:10559000B8020D46416B0DF1060088477CE000BF64
:1055A000027C002A40F08A800446D0F8B8020D46FA
:1055B000016B0DF1060088470146072048706CE03A
:1055C0000A0635D0426801F001018A4200F0798074
:1055D000D1B20446FFF7F2F92978204661602546EA
:1055E000FFF7BEFE002800F07F8004462846802199
:1055F000FFF744FE28460021FFF740FE29792846A0
:10560000FFF7DCF9022085F89C02204602B070BD4D
:1056100080210446FFF732FE20460021FFF72EFED0
:1056200029782046FFF7CAF90324204602B070BD4E
:10563000022180F89C120024002144600546FFF7F7
:10564000BDF92846FFF70EFA204602B070BD00BF34
:105650002846FFF707FA032085F89C02002420461D
:1056600002B070BDD0F8B42252690EE0D0F8B42276
:10567000D2680AE0D0F8B422126906E0D0F8B42269
:10568000926802E0D0F8B4229269BAB10D4604469D
:10569000007C0DF1060190470146EA8882B1BDF811
:1056A0000630ABB1934238BF1A46ADF8062020460B
:1056B000FFF7CAF90024204602B070BD044608E096
:1056C0002046FFF7CFF90024204602B070BD00BF8E
:1056D00020468021FFF7D2FD20460021FFF7CEFDB6
:1056E0000024204602B070BD2846EAE770B50A786B
:1056F0000D46C2F341120979531E022B044607D20C
:105700002046FFF765F9002855D0002070BD00BF86
:105710009ABB687840B3012814D003282DD194F89F
:105720009C02032812D1688838B911F07F0004D098
:10573000E88810B92046FFF7A1FD2046FFF792F94F
:10574000002070BD94F89C02032821D0022814D1B7
:10575000480612D02046FFF791FD20468021FFF732
:105760008DFD002070BD00BF94F89C0203282FD04F
:10577000022808BF5FEA416056D020468021FFF72B
:105780007DFD20460021FFF779FD002070BD00BFA0
:1057900068880028B9D10E46480603D02046314615
:1057A000FFF760FB2046FFF75DF920463146FFF723
:1057B0000FF90028A9D1D4F8B80282680020002A85
:1057C000C4F8D402A1D020462946BDE87040104755
:1057D00001F00F0000EB8000802904EB80002CBF5B
:1057E00090F8230090F863010028C6D001F07F00F4
:1057F00000EB800004EB800000F1140501EB810058
:1058000004EB8000802938BF00F5AA75480605D052
:105810002046FFF737FC08B1012000E0002005F129
:105820000E01A8730AE000BF08064FF0140058BF2D
:105830004FF4AA702118002001F80E0F2046022212
:10584000FFF702F9002070BDB0B50A7802F06002DF
:10585000602A08D090F89C22013A022A03D88A884C
:1058600012F0FE0F0AD080210446FFF707FD204604
:1058700000210024FFF702FD2046B0BD0C46D1B246
:105880000546FFF7A7F808B10320B0BDD5F8B81258
:105890008A68002AF8D000212846C5F8D41221468B
:1058A0009047E1880446002908BF002CE4D128462F
:1058B000FFF7D8F80020B0BD7047000040F2683014
:1058C000C2F200007047000010B50A784B78D0F89B
:1058D0001CE802F00F04012B4FEA421C18D10123EF
:1058E000A34043EA0E03C0F81C386044D0F80039E6
:1058F0001B0428D48B6800F51060097904686FF3E5
:10590000DF2343EA814144EA8252114316E000BF9B
:105910004FF48032A24042EA0E02C0F81C286044D4
:10592000D0F8002B12040ED48A6800F53060097993
:105930006FF3DF22036842EA8141194341F080514D
:1059400041F400410160002010BD00000146D0F884
:10595000000940F2FF729043C1F80009D1F8040831
:1059600040F480720020C1F80428704782B002F42D
:105970007F42B2F5807F40F09980826B4FF6BF7313
:1059800022F480328263C268CFF6BD731A40C260CF
:10599000029BC268DBB222F44012012BC26003D129
:1059A000C26842F48012C26000220092009A013262
:1059B0000092009AB2F1706F00F2F0800269002A42
:1059C00021D4009A01320092009AB2F1706F00F275
:1059D000E5800269002A16D4009A01320092009AEA
:1059E000B2F1706F00F2DA800269002A0BD4009ADB
:1059F00001320092009AB2F1706F00F2CF8002691A
:105A0000B2F1FF3FD2DC0A220092009AAAB100BF95
:105A1000009A013A0092009A7AB1009A013A0092F3
:105A2000009A52B1009A013A0092009A2AB1009A63
:105A3000013A0092009A002AEAD1026942F001027A
:105A40000261009A01320092009AB2F1706F00F286
:105A5000A5800269D20720D0009A01320092009AF4
:105A6000B2F1706F00F29A800269D20715D0009AE5
:105A700001320092009AB2F1706F00F28F800269D9
:105A8000D2070AD0009A01320092009AB2F1706FE8
:105A900000F284800269D207D3D14FF0000C01F4E8
:105AA0007F01B1F5803F40F099808FE0C26842F0FD
:105AB0004002C26000220192019A01320192019AD1
:105AC000B2F1706F72D80269002A1ED4019A0132B5
:105AD0000192019AB2F1706F68D80269002A14D459
